:100000000C9438000C947C060C9460000C946000F6
:100010000C9460000C9460000C9460000C946000E0
:100020000C9460000C9460000C94AB060C94DA06FF
:100030000C9409070C9460000C9460000C94600010
:100040000C9438070C9460000C9452050C948A05AB
:100050000C9460000C9460000C9460000C946000A0
:100060000C94B1110C946000B0046F067113B404C9
:1000700011241FBECFEFD8E0DEBFCDBF13E0A0E05C
:10008000B1E0EEEBFEE202C005900D92A639B10799
:10009000D9F716E0A6E9B3E001C01D92AC35B1076F
:1000A000E1F710E0CEE6D0E004C02297FE010E9406
:1000B000A016C836D107C9F70E947A040C947513AC
:1000C0000C940000682F83EC93E00E94C21081E042
:1000D00090E0089583EC93E00E94201190E0089551
:1000E000A091C103B091C203ED91FC9111970084DE
:1000F000F185E02D682FCD01099581E090E008950C
:100100008091C1039091C203DC01ED91FC910480C8
:10011000F581E02D0994CF92DF92EF92FF920F9339
:100120001F93CF93DF93EC016F967C0125E2E20EE3
:10013000F11C8C01085E1F4F6C012BE2C20ED11C1A
:10014000CE15DF05A1F06881C8010E94F00C88235C
:1001500061F09701F9012C153D0539F02F5F3F4FF4
:1001600080818830B9F7888180832196E9CF68E063
:10017000C801DF91CF911F910F91FF90EF90DF9019
:10018000CF900C94D10CCF93DF93EC01C252DF4F90
:10019000CE010E94310A882369F020E044E161E049
:1001A000CE010E94570A882329F0CE01DF91CF911A
:1001B0000C940E0A80E0DF91CF91089568E680915B
:1001C0007204909173040E94F612809172049091CF
:1001D0007304DC01ED91FC910190F081E02D65E765
:1001E000099560E080917204909173040E94081355
:1001F00021E041E068E680917204909173040E94CE
:10020000A5128091720490917304DC01ED91FC9130
:100210000680F781E02D0995883641F568E68091E2
:100220007204909173040E94F6128091720490916E
:100230007304DC01ED91FC910190F081E02D6BE6FF
:1002400009958091720490917304DC01ED91FC9109
:100250000190F081E02D60E0099561E080917204E9
:10026000909173040E94081381E0089580E008953E
:100270000F931F93CF93DF93082FD62F142FC0E037
:10028000602F8C2F0E94D0076D2F81E08C0F0E9471
:10029000D007612F82E08C0F0E94D007CC5FC03165
:1002A00079F7DF91CF911F910F910895CF93DF934D
:1002B000CDB7DEB72F970FB6F894DEBF0FBECDBF18
:1002C0005C0181E288871F8286E0EEE2F1E0DE01D8
:1002D000119601900D928A95E1F710E0750128E1E1
:1002E000E20EF11C65013DEDC31A3EEFD30A250174
:1002F0008EED480E511C45019FEF891A990AC701DE
:100300000E94DB0BC7010E94200C882309F49FC0C8
:10031000C7010E94270CA82FB0E0BC87AB871F92B3
:100320008F9382E392E09F938F93F60181818F9365
:1003300080818F930E949C1395012B5D3F4F3A87DC
:100340002987C5018B969E878D870F900F900F9000
:100350000F900F900F9020E2222EE985FA852D85CF
:100360003E85E217F30759F2A985BA853D90BA8711
:10037000A987B8E03B1689F3632C712C8B859C858B
:10038000032C02C0959587950A94E2F780FFE5CF8C
:10039000E5E0E31540F0F301EE0FFF1FE35BFC4FD8
:1003A0008081918102C084E391E09F938F93A3E4C5
:1003B000B2E0BF93AF93D60111968C9111978F93B2
:1003C0008C918F930E949C13632DC7010E94D10CC6
:1003D000C2010E949C0A0F900F900F900F900F90F7
:1003E0000F90882369F001E09E01295F3F4F41E0B3
:1003F000BE01685F7F4FC2010E943C0B8111BBC0F0
:10040000632DC7010E947D0C632DC7010E942A0C39
:100410004AE050E060E070E0C4010E94D50DC501E3
:100420000E94C30042E350E060E070E0C4010E941B
:10043000D50DC7010E94DB0B61E070E0032C01C009
:10044000660F0A94EAF7C7010E941A0C86CF812F23
:1004500090E0019666E070E00E943116182FF501D9
:10046000E80FF91F35A038E0331689F3632C712C9F
:1004700085E0831540F0F301EE0FFF1FE35BFC4FB7
:100480008081918102C084E391E09F938F938CE4FB
:1004900092E09F938F93D60111968C9111978F9331
:1004A0008C918F930E949C13632DC7010E94D10CE5
:1004B000C2010E94730A0F900F900F900F900F903F
:1004C0000F90882309F464C001E09E01295F3F4F2B
:1004D00041E0BE01685F7F4FC2010E94FD0A882390
:1004E00009F456C0E1E0F0E0EC0FFD1FE60DF71D4A
:1004F00080E280831F928F9380E692E09F938F9398
:10050000D60111968C9111978F938C918F930E94A5
:100510009C1340E060E280E00E9438010F900F9051
:100520000F900F900F900F90632DC7010E947D0CCC
:10053000632DC7010E942A0C4AE050E060E070E0A1
:10054000C4010E94D50DC5010E94C30042E350E0E2
:1005500060E070E0C4010E94D50DC7010E94DB0B72
:1005600061E070E0032C01C0660F0A94EAF7C7014E
:100570000E941A0CC4CEE1E0F0E0EC0FFD1FE60D86
:10058000F71D208240E060E280E00E94380138CF11
:10059000E1E0F0E0EC0FFD1FE60DF71D6081662342
:1005A00019F2645060831F926F9385E592E09F93E8
:1005B0008F93F60181818F9380818F936F870E9443
:1005C0009C1340E06F85A7CFCF93DF93D82FC0E077
:1005D0006D2F8C2F0E9467076D2F81E08C0F0E947A
:1005E00067076D2F82E08C0F0E94670760E083E051
:1005F0008C0F0E946707CC5FC03151F7DF91CF911C
:1006000008958C018AB18F738AB98BB18F738BB9BE
:10061000789478018FEFE81AF80AC7010E949B0DC1
:100620009F938F937F936F938AE792E09F938F932B
:10063000E801CD5DDE4F89818F9388818F930E9481
:100640009C13D8011C92C7010E949B0D9F938F930E
:100650007F936F938AE992E09F938F9389818F9321
:1006600088818F930E949C135801B8E1AB0EB11C96
:1006700068E0C5010E94D10C4AE050E060E070E003
:10068000C7010E94D50DC5010E94AD0B6801ECEDBC
:10069000CE0ED11CD6018D919C910E94A212C80150
:1006A0000E948B00F601808191810E949E12C701F9
:1006B0000E949B0D9F938F937F936F9384EB92E0A7
:1006C0009F938F9389818F9388818F930E949C132E
:1006D0006801F5E2CF0ED11C48018BE2880E911C17
:1006E000ADB7BEB758960FB6F894BEBF0FBEADBF3C
:1006F0002601BEEC6B2EB2E07B2E4814590411F19A
:10070000D201ED912D01E830C1F3E63040F4F0E084
:10071000EE0FFF1FE35BFC4F8081918102C084E3F9
:1007200091E09F938F937F926F9289818F938881BD
:100730008F930E949C130F900F900F900F900F902B
:100740000F90DBCF80E492E09F938F9389818F930A
:1007500088818F930E949C1368E0C5010E94D10C90
:100760004AE050E060E070E0C7010E94D50DC8018A
:100770000E94DE000F900F900F900F90882329F0B9
:10078000EBE66E2EE2E07E2E04C073E7672E72E089
:10079000772EC7010E949B0D7F926F929F938F933C
:1007A0007F936F9382ED92E09F938F9389818F93D4
:1007B00088818F930E949C13EDB7FEB73A960FB6CF
:1007C000F894FEBF0FBEEDBF54EF452E52E0552EFC
:1007D00061E1662E63E0762EC814D90409F487C05F
:1007E000D6016C91683009F47EC0C5010E94D10C1D
:1007F000D601EC91E63040F4F0E0EE0FFF1FE35B32
:10080000FC4F2080318004C034E3232E31E0332EAE
:10081000C7010E949B0D3F922F929F938F937F93CE
:100820006F935F924F9289818F9388818F930E94FB
:100830009C130E94430883E00E94E40240E060E0D1
:1008400080E80E943801D601EC918DB79EB70A96D8
:100850000FB6F8949EBF0FBE8DBFE63040F4F0E0B7
:10086000EE0FFF1FE35BFC4F2080318004C094E358
:10087000292E91E0392EC7010E949B0D3F922F92A5
:100880009F938F937F936F937F926F9289818F93C2
:1008900088818F930E949C13D6016C91C5010E94A0
:1008A0002A0CEDB7FEB73A960FB6F894FEBF0FBE0E
:1008B000EDBF83E0382EC8010E94C300882349F0B1
:1008C00082E00E94E40240E060E880E00E9438019B
:1008D0000AC044E650E060E070E0C7010E94D50D18
:1008E0003A943110E8CFFFEFCF1ADF0A75CFC80175
:1008F0000E945601CF93DF93CDB7DEB76C970FB64A
:10090000F894DEBF0FBECDBF82E690E0988F8F8B4C
:100910008AE690E09A8F898F23E02A8B1C8E1B8EAB
:1009200080E790E09A87898780E890E09C878B87B2
:100930002C831E861D86CE0101969093B804809369
:10094000B7049E01215F3F4F3093B6042093B50456
:100950009093BA048093B90486E993E00E9401035E
:1009600086E993E00C94C71683EC93E00C9406118F
:10097000FC0122813381F901E05CFF4F808191818C
:10098000F901EE5BFF4F20813181805C9F4F821B1C
:10099000930B60E470E00E9431160895FC0182819F
:1009A0009381FC01E05CFF4F40815181FC01EE5BD3
:1009B000FF4F208131814217530741F00190F081B0
:1009C000E02DE80FF91F808190E008958FEF9FEFF1
:1009D0000895FC0182819381FC01E05CFF4F40811E
:1009E0005181FC01EE5BFF4F20813181421753079B
:1009F00079F0A081B181A80FB91F8C91208131813C
:100A00002F5F3F4F2F7333273183208390E008956A
:100A10008FEF9FEF0895FC018789882329F0A28535
:100A2000B3858C9186FFFBCF178A0895CF93DF9310
:100A3000FC0124813581D901A05CBF4F8D919C912F
:100A4000119701968F739927E901CE5BDF4F48819B
:100A5000598184179507D9F30D90BC91A02DA20F51
:100A6000B31F6C93A481B581A05CBF4F11969C937A
:100A70008E93A485B5852C9181E090E0058802C015
:100A8000880F991F0A94E2F7282B2C9381E0878B1B
:100A90000284F385E02D80818064808381E0DF9192
:100AA000CF9108951F920F920FB60F9211242F939A
:100AB0003F938F939F93EF93FF938091C00082FDAC
:100AC0001CC080913F059091400501968F73992736
:100AD00020914105309142058217930781F0E09102
:100AE0003F05F09140052091C600E150FB4F208367
:100AF0009093400580933F0502C08091C600FF910E
:100B0000EF919F918F913F912F910F900FBE0F907A
:100B10001F9018951F920F920FB60F9211242F93CA
:100B20003F938F939F93EF93FF932091FB0430911A
:100B3000FC048091FD049091FE042817390731F4DC
:100B40008091C1008F7D8093C10014C0E091FD04AD
:100B5000F091FE04E554FB4F20818091FD049091BB
:100B6000FE0401968F7399279093FE048093FD04F1
:100B70002093C600FF91EF919F918F913F912F910C
:100B80000F900FBE0F901F901895CF92DF92EF92AB
:100B9000FF92CF93DF93EC016A017B01EA85FB852D
:100BA00081E090E00E8802C0880F991F0A94E2F756
:100BB000808360E874E88EE190E0A70196010E94CE
:100BC00045162150310941095109569547953795E8
:100BD0002795211580E1380798F0EA85FB8510827A
:100BE00060E472E48FE090E0A70196010E94451650
:100BF0002150310941095109569547953795279557
:100C0000EE81FF813083E885F98520831F8AEC859A
:100C1000FD85608181E090E0AC010A8802C0440F4C
:100C2000551F0A94E2F79C010B8802C0220F331F64
:100C30000A94E2F7422B462B9C010C8802C0220F3B
:100C4000331F0A94E2F7422B4083EC85FD85208117
:100C50000D8802C0880F991F0A94E2F780958223BD
:100C60008083DF91CF91FF90EF90DF90CF90089538
:100C7000FC018DE593E0918380838FEF94E0938373
:100C800082838BEB94E09583848385EC90E097835B
:100C9000868384EC90E09187808780EC90E0938756
:100CA0008287A1ECB0E0B587A48782EC90E09787BB
:100CB000868786EC90E0918B808B84E0828B83E04A
:100CC000838B87E0848B85E0858B81E0868B1C920B
:100CD00040E051EE60E070E0CF010C94C50583E484
:100CE00095E00C943806E62FF0E0EE0FFF1FE75A70
:100CF000FA4F9183808308951F920F920FB60F923F
:100D000011242F933F934F935F936F937F938F9310
:100D10009F93AF93BF93EF93FF9380915B05909167
:100D20005C05009739F0DC01ED91FC910190F081B8
:100D3000E02D0995FF91EF91BF91AF919F918F9118
:100D40007F916F915F914F913F912F910F900FBEC7
:100D50000F901F9018951F920F920FB60F921124AB
:100D60002F933F934F935F936F937F938F939F93B3
:100D7000AF93BF93EF93FF9380916D0590916E05B4
:100D8000009739F0DC01ED91FC910190F081E02DAC
:100D90000995FF91EF91BF91AF919F918F917F91B5
:100DA0006F915F914F913F912F910F900FBE0F90D8
:100DB0001F9018951F920F920FB60F9211242F9328
:100DC0003F934F935F936F937F938F939F93AF93D3
:100DD000BF93EF93FF9380916F05909170050097FB
:100DE00039F0DC01ED91FC910190F081E02D099545
:100DF000FF91EF91BF91AF919F918F917F916F91F3
:100E00005F914F913F912F910F900FBE0F901F90C8
:100E100018951F920F920FB60F9211242F933F93A4
:100E20004F935F936F937F938F939F93AF93BF93F2
:100E3000EF93FF938091710590917205009739F0BF
:100E4000DC01ED91FC910190F081E02D0995FF917D
:100E5000EF91BF91AF919F918F917F916F915F9132
:100E60004F913F912F910F900FBE0F901F901895AB
:100E70001F920F920FB60F9211242F933F934F930F
:100E80005F936F937F938F939F93AF93BF93EF93F2
:100E9000FF938091790590917A05009739F0DC01F4
:100EA000ED91FC910190F081E02D0995FF91EF917A
:100EB000BF91AF919F918F917F916F915F914F9172
:100EC0003F912F910F900FBE0F901F901895FF929A
:100ED0000F931F93CF93DF93082FF62E182F16959D
:100EE00016951C5EC2E7D4E068E1888199810E9472
:100EF000F61288819981DC01ED91FC910190F081DD
:100F0000E02D612F099560E0888199810E94081386
:100F100021E041E068E1888199810E94A5128881E1
:100F20009981DC01ED91FC910680F781E02D099516
:100F30000370202F30E0220F331F43E050E0022ED9
:100F400001C0440F0A94EAF7042F00950823EF2DFF
:100F500001C0EE0F2A95EAF70E2B68E1888199818E
:100F60000E94F61288819981DC01ED91FC9101903B
:100F7000F081E02D612F099588819981DC01ED9147
:100F8000FC910190F081E02D602F099561E088814E
:100F90009981DF91CF911F910F91FF900C940813CD
:100FA0000F931F93CF93DF93082F162FC2E7D4E040
:100FB00068E1888199810E94F61288819981DC011B
:100FC000ED91FC9162E0600F0190F081E02D0995B8
:100FD00088819981DC01ED91FC910190F081E02DF7
:100FE000612F099561E088819981DF91CF911F91EF
:100FF0000F910C9408130F931F93CF93DF93082F37
:10100000162FC2E7D4E068E1888199810E94F61228
:1010100088819981DC01ED91FC910190F081E02DB6
:1010200063E1099588819981DC01ED91FC91019042
:10103000F081E02D602F099561E0888199810E94FF
:10104000081368E1888199810E94F612888199814C
:10105000DC01ED91FC910190F081E02D62E10995B8
:1010600088819981DC01ED91FC910190F081E02D66
:10107000612F099561E088819981DF91CF911F915E
:101080000F910C940813CF9363E0809172049091B8
:1010900073040E94F6128091720490917304DC0133
:1010A000ED91FC910190F081E02D65EA0995809128
:1010B000720490917304DC01ED91FC910190F08138
:1010C000E02D6AE5099561E08091720490917304C6
:1010D0000E94081368E180917204909173040E9449
:1010E000F6128091720490917304DC01ED91FC91F1
:1010F0000190F081E02D60E009958091720490915B
:101100007304DC01ED91FC910190F081E02D60E031
:10111000099561E080917204909173040E94081314
:1011200068E180917204909173040E94F61280919C
:10113000720490917304DC01ED91FC910190F081B7
:10114000E02D61E009958091720490917304DC01B7
:10115000ED91FC910190F081E02D65E2099561E04F
:1011600080917204909173040E94081360E888E1F2
:101170000E94FB07C0E060E08C2F0E94670760E0E0
:101180008C2F0E94D007CF5FC430A9F7CF9108956C
:10119000CF92DF92EF92FF920F931F93CF93DF9343
:1011A0007B01C42FCF5F42E050E060E070E087E950
:1011B00093E00E94D50D64E28091720490917304D3
:1011C0000E94F6128091720490917304DC01ED91FB
:1011D000FC910190F081E02D60E00995809172040E
:1011E00090917304DC01ED91FC910190F081E02D70
:1011F00060E009958091720490917304DC01ED9197
:10120000FC910190F081E02D6FEF099580917204BF
:1012100090917304DC01ED91FC910190F081E02D3F
:101220006C2F09958091720490917304DC01ED910B
:10123000FC916C2F61950190F081E02D09958091D2
:10124000720490917304DC01ED91FC910190F081A6
:10125000E02D64ED0995D12C83EDC82ED0E02197C7
:101260000D2D10E080917204909173040C171D07EE
:10127000E4F40E0D1F1DDC01ED91FC910190F08155
:10128000E02DD8016C910995882321F0F801808127
:10129000C80E09C0DA9441E050E060E070E087E9F0
:1012A00093E00E94D50DD394DBCFDC01ED91FC914E
:1012B0006C2D60950190F081E02D0995809172046C
:1012C00090917304DC01ED91FC910190F081E02D8F
:1012D00060E0099561E08091720490917304DF9160
:1012E000CF911F910F91FF90EF90DF90CF900C94D2
:1012F0000813DF92EF92FF920F931F93CF93DF9328
:10130000F62EE72E142FC9E1D2E0D40F4AE050E0C8
:1013100060E070E087E993E00E94D50D21E04D2F59
:1013200064E280917204909173040E94A5128091EE
:10133000720490917304DC01ED91FC910680F781B9
:10134000E02D0995082F813099F0D12CD11669F044
:101350008091720490917304DC01ED91FC91068000
:10136000F781E02D0995D394F1CFC15079F614C0DF
:10137000DF2CCF2DDE2D8C2F8D19811768F48091F5
:10138000720490917304DC01ED91FC910680F78169
:10139000E02D09958993EFCF81E0013009F080E0DD
:1013A000DF91CF911F910F91FF90EF90DF90089503
:1013B0000F931F93CF93DF9300D000D000D0CDB711
:1013C000DEB78E010F5F1F4F26E0F80111922A95BC
:1013D000E9F746E0B8010E94790946E050E066E08E
:1013E00071E0C8010E94781321E0892B09F020E008
:1013F000822F26960FB6F894DEBF0FBECDBFDF91C9
:10140000CF911F910F910895CF93DF93EC010E942C
:10141000C808CE01DF91CF910C94D809CF93DF9308
:10142000EC0186E1888388E8898381E08A8343E050
:10143000BE01CE010E94040A882379F048E0BE0173
:10144000CE010E9479098D81853D39F48E818731E5
:1014500021F49F819F7381E009F080E0DF91CF91BB
:101460000895CF93DF93EC0182E0888341E0BE01D1
:10147000CE010E94040A8823A9F04CE0BE01CE01EF
:101480000E9479098D81853D69F48E81833051F404
:1014900046E050E060E071E0CE010E948E1321E052
:1014A000892B09F020E0822FDF91CF910895CF930F
:1014B000DF93EC0184E1888369834A832B8344E0D2
:1014C000BE01CE010E94040A882349F048E0BE0113
:1014D000CE010E94790981E09E81953109F080E07A
:1014E000DF91CF910895CF93DF93EC0186E5888358
:1014F00081E0898392E09A838B831C828FEF8D83B6
:101500008E831F82188649E0BE01CE010E94040A24
:10151000882371F049E1BE01CE010E9479098D81D5
:10152000853D31F48E81873519F481E09F819111D9
:1015300080E0DF91CF910895CF93DF93EC018CE8A9
:101540008883198284E08A831B8282E18C8384E30E
:101550008D8386E58E8380E48F8381E088878EEF9C
:10156000898782EA8A8783EA8B8784EA8C8785EA7F
:101570008D8786EA8E8787EA8F8780EC888B81EC5F
:10158000898B82EC8A8B83EC8B8B84EC8C8B85EC47
:101590008D8B86EC8E8B87EC8F8B8FEF888F898F6E
:1015A0008AEA8A8F89E98B8F88E88C8F87E78D8F0D
:1015B00086E68E8F85E58F8F84E488A383E389A3F5
:1015C00082E28AA381E18BA31CA21DA246E2BE0196
:1015D000CE010E94040A882361F048E1BE01CE01D9
:1015E0000E9479098D81853D21F481E09E819D389D
:1015F00009F080E0DF91CF910895EF92FF920F9371
:101600001F93CF93DF93EC01142F790180E488833B
:1016100081E0898350E0CE0102960E94851342E06A
:10162000410FBE01CE010E94040A811102C080E078
:101630001CC04CE3BE01CE010E9479098D81853D1D
:10164000B1F78E81813499F78F818111F0CF8B8131
:101650008350801708F4082F402F50E0BE01685FC8
:101660007F4FC7010E948513802FDF91CF911F917B
:101670000F91FF90EF900895CF92DF92EF92FF923B
:101680000F931F93CF93DF93EC017B01142F69011C
:1016900086E8888341E0BE01CE010E94040A8111E0
:1016A00002C080E03CC04CE3BE01CE010E9479093B
:1016B0008D81853DB1F78E81873899F78F818111B2
:1016C000F0CF8B818350801708F4082F202F30E053
:1016D000A901BE01685F7F4FC6010E948513FE010C
:1016E0008EE88193412F50E0B701CF010E9485130E
:1016F00041E0410FBE01CE010E94040A882389F215
:101700004AE1BE01CE010E9479098D81853D49F6ED
:101710008E818F3831F68F818111C3CF802FDF9179
:10172000CF911F910F91FF90EF90DF90CF90089590
:10173000DC011296ED91FC91139781E0828308956C
:10174000EBE6F3E0DC011196FC93EE9313967C93A9
:101750006E931297642F0C947306CF93DF93C2E7B6
:10176000D4E060E2888199810E94F6128881998193
:10177000DC01ED91FC910190F081E02D63E0099591
:1017800088819981DC01ED91FC910190F081E02D3F
:1017900060EC099561E0888199810E940813E9E66F
:1017A000F0E080818C7F8083808182608083E89AF2
:1017B000DF91CF910895CF93DF93EC018A81882345
:1017C000B1F161E280917204909173040E94F6126B
:1017D0008091720490917304DC01ED91FC91019071
:1017E000F081E02D60E0099560E0809172049091B5
:1017F00073040E94081321E041E061E280917204C9
:10180000909173040E94A5121A82809172049091A3
:101810007304DC01ED91FC910680F781E02D0995C0
:101820009981982B98272881292B28838983DF91F8
:10183000CF9108956095FC0120812623208308958F
:10184000FC0181E09081911101C080E00895FC01CC
:10185000808108951F93CF93DF93162FC2E7D4E0C2
:1018600060E2888199810E94F61288819981DC0169
:10187000ED91FC910190F081E02D61E0099560E02F
:10188000888199810E94081321E041E060E288810B
:1018900099810E94A51288819981DC01ED91FC91CA
:1018A0000680F781E02D099521E030E001C0220F8C
:1018B0001A95EAF7182F122B60E2888199810E940D
:1018C000F61288819981DC01ED91FC910190F08103
:1018D000E02D61E0099588819981DC01ED91FC9111
:1018E0000190F081E02D612F099561E08881998157
:1018F000DF91CF911F910C9408131F93CF93DF9327
:10190000162FC2E7D4E060E2888199810E94F61226
:1019100088819981DC01ED91FC910190F081E02DAD
:1019200061E0099560E0888199810E94081321E0B7
:1019300041E060E2888199810E94A51288819981A5
:10194000DC01ED91FC910680F781E02D099521E005
:1019500030E001C0220F1A95EAF7122F10951823D4
:1019600060E2888199810E94F61288819981DC0168
:10197000ED91FC910190F081E02D61E00995888165
:101980009981DC01ED91FC910190F081E02D612FB6
:10199000099561E088819981DF91CF911F910C9425
:1019A000081388B1807F88B988B16F70682B68B9D7
:1019B0000895CF93DF93EC0118828FEF898381E044
:1019C0008A8341E0BE01CE0103960E94A00B87B13D
:1019D0008F6087B968E0CE01DF91CF910C94D10C74
:1019E0000E94D10C4AE050E060E070E087E993E0AB
:1019F0000E94D50D45983D9A3D98459A4AE050E0A1
:101A000060E070E087E993E00E94D50D86B185FB28
:101A1000882780F90895DC011296ED91FC911397C7
:101A20004685578560897189328926E0230F2D37D5
:101A300028F44E5F5F4F6F4F7F4F06C029E8230F9A
:101A40004D5F5F4F6F4F7F4F228BDC011296ED9100
:101A5000FC91139746875787608B718B828593859E
:101A6000A485B5850196A11DB11D82879387A487A2
:101A7000B5870895E1E7F3E0DC011196FC93EE935E
:101A800013967C936E931297642F0C9473066F9247
:101A90007F928F929F92AF92BF92CF92EF92FF92DE
:101AA0000F931F93CF93DF93CDB7DEB73C01142F75
:101AB000DC0111967C936E9313963C932E931297B0
:101AC0001596FC92EE9214971796BC92AE921697CA
:101AD00019969C928E921897FC0112861386148692
:101AE00015861E961D921D921D921C92519752961C
:101AF0001C924889BC0143960E943A0DD301ED9196
:101B0000FC91119710831296ED91FC91139700832D
:101B10001496ED91FC911597C082DF91CF911F91A2
:101B20000F91FF90EF90CF90BF90AF909F908F90CC
:101B30007F906F9008952FB7F894FC0166857785A4
:101B4000808991892FBF0895CF92DF92EF92FF9203
:101B5000FC013FB7F894C284D384E484F584A08563
:101B6000B1852C910680F781E02D408140FF02C0B5
:101B70002F3FA9F43FBF9E2D8D2D7C2D6627620F30
:101B8000711D811D911D23E0660F771F881F991F0E
:101B90002A95D1F7FF90EF90DF90CF9008958FEFC7
:101BA000C81AD80AE80AF80AE5CFCF92DF92EF9276
:101BB000FF920F931F93CF93DF93EC016A017B0198
:101BC0000E94A40D8B01C114D104E104F10481F041
:101BD000CE010E94A40D601B710B683E734098F308
:101BE00081E0C81AD108E108F10808511C4FEBCF79
:101BF000DF91CF911F910F91FF90EF90DF90CF90E9
:101C00000895CF93DF93FC01A281B3811896CD9103
:101C1000DC911997288139815D968D919C915E9711
:101C200001965E969C938E935D975C969C915C97D3
:101C300012960D90BC91A02D8C91992339F08F7B39
:101C40008C93A281B3815C961C9207C080648C93B4
:101C5000A281B38180E85C968C93A281B381509677
:101C60006C91509761112EC0911184C01C96CD913A
:101C7000DC911D9757968D919C915897820F931FD9
:101C80009983888316960D90BC91A02D84E08C9347
:101C9000A281B38114960D90BC91A02D8C9184608B
:101CA0008C930280F381E02D42895389CA01969575
:101CB0008795820F931F840F951F968B858B81E0EC
:101CC000808B58C055968D919C915697A281B38177
:101CD000A901481B590B57FD47C05A964C915A977A
:101CE00046955C965C915C97452B5A964C93A281E5
:101CF000B38152964D915C915397840F951F6F5FFE
:101D0000693020F314960D90BC91A02D8C918B7F9F
:101D10008C93A281B3815F968C915F978F5F8034A3
:101D200008F080E090969C919097891759F05A9608
:101D30009C915A97A80FB11D91969C93A281B38153
:101D40005F968C93A281B38112960D90BC91A02DC9
:101D50008C918F7B8C93A281B3815C961C920280C4
:101D6000F381E02D108A06C056969C938E9355976A
:101D700050966C93DF91CF910895CF93DF93FC0140
:101D8000A281B38151964C91519759965C91599784
:101D90001A96CD91DC911B9788819981493068F51D
:101DA00052962D913C915397820F931F352F31708E
:101DB00056954F5F5B962C915B97321779F30D9098
:101DC000BC91A02D2C91332311F0206C02C02F73F5
:101DD00020682C93A281B3811A96CD91DC911B9738
:101DE000998388835B963C93A281B38159965C93D7
:101DF0000280F381E02D418B5AC0493059F42AE02A
:101E000051962C93A281B3810D90BC91A02D2C9161
:101E1000206C40C0ED01CF59DF4F3881ED01CE5924
:101E2000DF4F2881321314C051961C92A281B381D6
:101E30000D90BC91A02D8C918F738C930280F381B7
:101E4000E02D0480F581E02D80818D7F80832FC07F
:101E500031E051963C932F5F203408F020E0A281BE
:101E6000B381AE59BF4F2C93A281B381ED01C20F54
:101E7000D11DCD59DF4F288159962C93A281B38172
:101E80005B961C92A281B3810D90BC91A02D2C91E8
:101E90002F7320682C930280F381E02DA285B385F7
:101EA00022893389280F391F11963C932E93DF9195
:101EB000CF910895FC01A281B38114960D90BC913D
:101EC000A02D8C918B7F8C93A281B38112960D9063
:101ED000BC91A02D8C918F7B8C93A281B381509665
:101EE0009C9150975C962C912058A281B381993097
:101EF00048F45A968C915A978695822B5A968C93D1
:101F00009F5FF3CF5F968C915F978F5F803408F06F
:101F100080E090969C919097891759F05A969C91E1
:101F20005A97A80FB11D91969C93A281B3815F9699
:101F30008C93A281B38150961C92A281B381129698
:101F40000D90BC91A02D8C918F7B8C930280F3819E
:101F5000E02D148E0895E7E7F3E0DC011196FC9381
:101F6000EE9313967C936E931297642F0C947306E2
:101F7000EDE7F3E0DC011196FC93EE9313967C936E
:101F80006E931297642F0C947306E3E8F3E0DC0180
:101F90001196FC93EE9313967C936E931297642F95
:101FA0000C9473062F923F924F925F926F927F92A2
:101FB0008F929F92AF92BF92CF92DF92EF92FF9259
:101FC0000F931F93CF93DF93CDB7DEB73C011A0178
:101FD0002B01DC0111963C932E9313961C930E93C8
:101FE00012971596FC92EE9214971796DC92CE9269
:101FF00016971996BC92AE9218971B969C928E9249
:102000001A978D899E891D969C938E931C978F8914
:10201000988D1F969C938E931E9750961C92509766
:1020200051961C92519753961C921E925297549619
:102030001C92549756961C921E92559758961C9235
:102040001E92579759961C9259975A961C925A97D6
:102050005B961C925B975C961C925C975F961C92B9
:102060005F9790961C92F301EF59FF4F10821182F7
:10207000498DB301C3018D559F4F0E94AB0F4A8D0F
:10208000B301C30189559F4F0E94B80F4B8DB30117
:10209000C30185559F4F0E94C50FF301168E158E03
:1020A000C201B10196958795779567957E5E8548C3
:1020B0009F4FA20191010E9445162D3AFBE13F0777
:1020C0004105510580F4D3011496ED91FC911597CB
:1020D0001082ED91FC91119710821296ED91FC9176
:1020E000139781E81CC063E056954795379527956F
:1020F0006A95D1F72D3ABBE13B074105510578F5CB
:10210000D3011496ED91FC9115971082ED91FC91FD
:10211000119710821296ED91FC91139782E88083BB
:10212000F301338B228BA5E2B0E00E94261622E059
:1021300096958795779567952A95D1F7708F678BD8
:102140002098289A219A299A0680F781E02D80E22A
:102150008083D3011496ED91FC9115978083DF91D4
:10216000CF911F910F91FF90EF90DF90CF90BF9094
:10217000AF909F908F907F906F905F904F903F9027
:102180002F900895CF93DF93FC01DC01AF59BF4F2F
:102190008C918F5F803408F080E0EF01CE59DF4FE3
:1021A00098819817E9F32FB7F8949189992339F01A
:1021B000E80FF11DED59FF4F60838C931EC081E045
:1021C000818B618F138EA681B78182E08C93A4816D
:1021D000B5818C9182608C93A081B1818C918F7339
:1021E00080688C93A285B3850684F785E02D808175
:1021F0009181409611969C938E932FBFDF91CF9142
:102200000895FC0121892111FCCF0895CF93DF931C
:10221000EC01EC81FD8180818B7F8083EC81FD81ED
:1022200080818F7D808388A18F8FCE010E940111D4
:10223000EC81FD8180818D7F8083DF91CF91089536
:10224000FC019FB7F89420A1878D281759F080A131
:102250008F5F80A380A18F7380A380A1E80FF11D01
:1022600081A101C08FEF9FBF0895CF92DF92FF92AF
:102270000F931F93CF93DF931F92CDB7DEB78C01DF
:10228000F62E6B018C2D8F19841770F4D6016D9189
:102290006D01D801ED91FC910190F081E02DC80114
:1022A000498309954981EECF842F0F90DF91CF911B
:1022B0001F910F91FF90DF90CF900895FC01ED5B8F
:1022C000FF4F208130E0FC01EE5BFF4F8081281B37
:1022D000310981E0121613060CF080E00895FC012C
:1022E000EE5BFF4F2081DC01AD5BBF4F3C912317BC
:1022F00040F4DC01A20FB11D12968C912F5F208358
:1023000008958FEF0895FC01EE5BFF4F2081FC01E3
:10231000ED5BFF4F3081231728F4FC01E20FF11D24
:10232000828108958FEF08950895CF93DF93FC0184
:10233000EA57FF4F2081203480F4DC01AB57BF4FB8
:102340002C91820F911DEC01CB5BDF4F688381E004
:10235000820F8C93808381E001C080E0DF91CF9178
:1023600008951F920F920FB60F9211248F939F938F
:10237000EF93FF938091B900887F883289F1A0F4B0
:10238000803159F130F4882309F495C0883029F15F
:102390009DC0883129F1803209F098C080938D0565
:1023A00085ED8093BC003CC0803409F454C048F4EF
:1023B0008033D9F1883309F089C080938D0585EC8D
:1023C00072C08035E1F1883509F451C0883409F0D4
:1023D0007DC085ED8093BC0069C08091D20510C09E
:1023E00090918F0580918E05981768F4E0918F0584
:1023F00081E08E0F80938F05F0E0E057FA4F8081E7
:102400008093BB002EC08091D105882309F447C07A
:1024100085ED8093BC008091BC0084FDFCCF54C04E
:102420008091BC0084FDFCCF4FC080938D0585ED6D
:102430008093BC008091BC0084FDFCCF45C0E0913E
:102440008F0581E08E0F80938F058091BB00F0E0B7
:10245000E057FA4F808390918F0580918E059817F1
:1024600010F485EC01C085E88093BC002FC0E0919A
:102470008F0581E08E0F80938F058091BB00F0E087
:10248000E057FA4F80838091D105882341F085ED94
:102490008093BC008091BC0084FDFCCF15C081E01E
:1024A0008093D00584EA8093BC000EC08091BC006C
:1024B00084FDFCCF09C010928D0585ED8093BC0092
:1024C0008091BC0084FDFCCF1092D305FF91EF9169
:1024D0009F918F910F900FBE0F901F90189529E834
:1024E00033E0FC0131832083EE5BFF4F1082FC015F
:1024F000ED5BFF4F1082FC01EC5BFF4F1082FC0193
:10250000EB57FF4F1082FC01EA57FF4F1082FC018E
:10251000E957FF4F10821092D30581E08093D105D7
:102520001092D005E9EBF0E080818C7F808380E21F
:102530008093B80085E48093BC00089585E480937F
:10254000BC0008951092BC000895CF93DF93FC0166
:102550008091D3058111FCCF842F413408F080E4B1
:1025600091E09093D3052093D1052FEF20938D0513
:1025700010928F05280F20938E059093D20590918D
:10258000D205660F692B6093D2059091D0059923EF
:1025900041F01092D0059091D2059093BB0095EC3C
:1025A00001C095EE9093BC009091D3059130E1F37A
:1025B00090918F05981710F480918F05A0E9B5E0F0
:1025C00020E030E0281740F49D91EF01C20FD31FA7
:1025D0009A832F5F3F4FF6CFDF01AE5BBF4F1C9258
:1025E000ED5BFF4F8083DF91CF910895FC01E957A8
:1025F000FF4F21E02083FC01EC5BFF4F6083FC0177
:10260000EB57FF4F1082FC01EA57FF4F10820895ED
:10261000CF93DF93DC01AA57BF4F7C91713408F050
:1026200056C02091D3052111FCCF22E02093D30581
:102630006093D1052FEF20938D0510928F05709335
:102640008E059C0140E955E0FA012F5F3F4F6E2F48
:10265000641B671730F4E901CC5BDF4F688161933D
:10266000F4CF1092D2053091D205FC01EC5BFF4F04
:102670002081220F232B2093D2052091D0052223E5
:1026800041F01092D0052091D2052093BB0025EC9B
:1026900001C025EE2093BC002091D3052230E1F348
:1026A000FC01EB57FF4F10821C92FC01E957FF4FD2
:1026B000108280918D058F3F61F080918D05803271
:1026C00051F080918D05803341F483E007C081E0B3
:1026D00005C080E003C082E001C084E0DF91CF91BB
:1026E000089584ED95E00C946F12F8940C945217B1
:1026F000FB01DC0104C08D910190801921F441504F
:102700005040C8F7881B990B0895FB01DC0102C0FB
:1027100001900D9241505040D8F70895FB01DC0123
:102720004150504030F08D910190801919F40020F3
:10273000B9F7881B990B0895A0E0B0E0E2EAF3E155
:102740000C947716AE01475F5F4F6F8178858D815E
:102750009E810E94AE13E2E00C949316ACE0B0E0D0
:10276000E4EBF3E10C9467167C016B018A01FC0138
:1027700017821682838181FFBDC1CE0101964C0173
:10278000F7019381F60193FD859193FF81916F018C
:10279000882309F4ABC1853239F493FD859193FF09
:1027A00081916F01853229F4B70190E00E9496155E
:1027B000E7CF512C312C20E02032A0F48B3269F08D
:1027C00030F4803259F0833269F420612CC08D32AC
:1027D00039F0803339F4216026C02260246023C0A0
:1027E000286021C027FD27C030ED380F3A3078F43B
:1027F00026FF06C0FAE05F9E300D1124532E13C051
:102800008AE0389E300D1124332E20620CC08E32A7
:1028100021F426FD6BC1206406C08C3611F42068BB
:1028200002C0883641F4F60193FD859193FF8191B2
:102830006F018111C1CF982F9F7D9554933028F45B
:102840000C5F1F4FFFE3F9830DC0833631F08337F0
:1028500071F0833509F05BC022C0F8018081898363
:102860000E5F1F4F44244394512C540115C038016E
:10287000F2E06F0E711CF801A080B18026FF03C04A
:10288000652D70E002C06FEF7FEFC5012C870E94BD
:102890008B152C0183012C852F77222E17C0380130
:1028A000F2E06F0E711CF801A080B18026FF03C01A
:1028B000652D70E002C06FEF7FEFC5012C870E948D
:1028C00080152C012C852068222E830123FC1BC03F
:1028D000832D90E048165906B0F4B70180E290E0ED
:1028E0000E9496153A94F4CFF50127FC859127FEB6
:1028F00081915F01B70190E00E94961531103A94E2
:10290000F1E04F1A51084114510471F7E5C08436C3
:1029100011F0893639F5F80127FF07C06081718110
:10292000828193810C5F1F4F08C06081718188276D
:1029300077FD8095982F0E5F1F4F2F76B22E97FF51
:1029400009C090958095709561957F4F8F4F9F4FEF
:102950002068B22E2AE030E0A4010E94C815A82EFB
:10296000A81844C0853729F42F7EB22E2AE030E023
:1029700025C0F22FF97FBF2E8F36C1F018F48835AD
:1029800079F0B4C0803719F0883721F0AFC02F2F0D
:102990002061B22EB4FE0DC08B2D8460B82E09C00C
:1029A00024FF0AC09F2F9660B92E06C028E030E0B1
:1029B00005C020E130E002C020E132E0F801B7FEBE
:1029C00007C060817181828193810C5F1F4F06C0B7
:1029D0006081718180E090E00E5F1F4FA4010E9432
:1029E000C815A82EA818FB2DFF77BF2EB6FE0BC06A
:1029F0002B2D2E7FA51450F4B4FE0AC0B2FC08C0E3
:102A00002B2D2E7E05C07A2C2B2D03C07A2C01C0D5
:102A1000752C24FF0DC0FE01EA0DF11D808180336D
:102A200011F4297E09C022FF06C07394739404C078
:102A3000822F867809F0739423FD13C020FF06C00F
:102A40005A2C731418F4530C5718732C731468F41D
:102A5000B70180E290E02C870E94961573942C8534
:102A6000F5CF731410F4371801C0312C24FF12C0B5
:102A7000B70180E390E02C870E9496152C8522FFF9
:102A800017C021FF03C088E590E002C088E790E00E
:102A9000B7010CC0822F867859F021FD02C080E278
:102AA00001C08BE227FD8DE2B70190E00E949615F0
:102AB000A51438F4B70180E390E00E9496155A946B
:102AC000F7CFAA94F401EA0DF11D8081B70190E0DF
:102AD0000E949615A110F5CF332009F451CEB7010D
:102AE00080E290E00E9496153A94F6CFF701868135
:102AF000978102C08FEF9FEF2C96E2E10C94831632
:102B0000FC010590615070400110D8F780959095B8
:102B10008E0F9F1F0895FC016150704001900110BD
:102B2000D8F7809590958E0F9F1F08950F931F9350
:102B3000CF93DF93182F092FEB018B8181FD03C009
:102B40008FEF9FEF20C082FF10C04E815F812C81EC
:102B50003D81421753077CF4E881F9819F012F5F83
:102B60003F4F39832883108306C0E885F985812F7C
:102B70000995892B29F72E813F812F5F3F4F3F8396
:102B80002E83812F902FDF91CF911F910F91089568
:102B9000FA01AA27283051F1203181F1E8946F938E
:102BA0006E7F6E5F7F4F8F4F9F4FAF4FB1E03ED034
:102BB000B4E03CD0670F781F891F9A1FA11D680FD2
:102BC000791F8A1F911DA11D6A0F711D811D911D05
:102BD000A11D20D009F468943F912AE0269F11247A
:102BE0003019305D3193DEF6CF010895462F4770DE
:102BF000405D4193B3E00FD0C9F7F6CF462F4F7039
:102C0000405D4A3318F0495D31FD4052419302D096
:102C1000A9F7EACFB4E0A69597958795779567953C
:102C2000BA95C9F700976105710508959B01AC013C
:102C30000A2E06945795479537952795BA95C9F763
:102C4000620F731F841F951FA01D08950E94A41674
:102C5000A59F900DB49F900DA49F800D911D1124F0
:102C6000089597FB072E16F4009407D077FD09D03E
:102C70000E94B31607FC05D03EF4909581959F4FB6
:102C80000895709561957F4F0895A1E21A2EAA1BB1
:102C9000BB1BFD010DC0AA1FBB1FEE1FFF1FA2170C
:102CA000B307E407F50720F0A21BB30BE40BF50B09
:102CB000661F771F881F991F1A9469F76095709592
:102CC000809590959B01AC01BD01CF0108952F9295
:102CD0003F924F925F926F927F928F929F92AF92AC
:102CE000BF92CF92DF92EF92FF920F931F93CF93F9
:102CF000DF93CDB7DEB7CA1BDB0B0FB6F894DEBF90
:102D00000FBECDBF09942A88398848885F846E84B5
:102D10007D848C849B84AA84B984C884DF80EE80FF
:102D2000FD800C811B81AA81B981CE0FD11D0FB608
:102D3000F894DEBF0FBECDBFED010895EE0FFF1F6B
:102D40000590F491E02D0994A29FB001B39FC001BA
:102D5000A39F700D811D1124911DB29F700D811DC7
:102D60001124911D0895AA1BBB1B51E107C0AA1F86
:102D7000BB1FA617B70710F0A61BB70B881F991F1C
:102D80005A95A9F780959095BC01CD0108958F9231
:102D90009F92AF92BF92CF92DF92EF92FF920F93EA
:102DA0001F93CF93DF93EC0180916E0005B544B57E
:102DB00081600360436090E19F9396E4892E912C9B
:102DC00025E3A22EB12CC82E3EE6E32EF12C25E4FD
:102DD00030E064E470E0CE0101960E94470DCE0120
:102DE00048960E94D90C86E0ECE0F1E0DE015F96A7
:102DF00001900D928A95E1F786E0E2E1F1E0DE01D3
:102E0000959601900D928A95E1F783E495E09CA751
:102E10008BA78CE08F938BE08F938AE08F931F9228
:102E200084E88F931F928AE88F9348E8842E912C30
:102E300056E8A52EB12C66E3C62ED12C7FE6E72EF0
:102E4000F12C01E810E020E830E040E855E260E0D5
:102E500070E0CE018D960E94D20FC452DF4F84EDF8
:102E600095E099838883ECE7F0E08081806E808331
:102E7000EAE7F0E08081866880838DB79EB7089688
:102E80000FB6F8949EBF0FBE8DBFDF91CF911F91FB
:102E90000F91FF90EF90DF90CF90BF90AF909F90F9
:102EA0008F90089510E0CEE6D0E004C0FE010E94AD
:0E2EB000A0162296C037D107C9F7F894FFCFBD
:102EBE0000FF06FAD5030000FF00FF000001020329
:102ECE0004050808080808086A016E0175018101E9
:102EDE009101A101534D415254424C4B30322020AE
:102EEE0020202020494E56414C4944005842454529
:102EFE002052455345540D0A00434F4E4649475FF5
:102F0E0054580D0A00434F4E4649475F57414954A6
:102F1E005F464F525F52580D0A002B2B2B00415427
:102F2E0052450D0A004154494420323030310D0AC9
:102F3E0000415444482030303133413230300D0A94
:102F4E00004154444C2034304141314132430D0A4A
:102F5E00004154434E0D0A004163635B785D203D92
:102F6E002025690D0A4163635B795D203D2025694B
:102F7E000D0A4163635B7A5D203D2025690D0A547D
:102F8E00656D70203D2025690D0A00506F776572C2
:102F9E0020436F6E6E6563746564203D2025630D5E
:102FAE000A4368617267696E67203D2025630D0ACA
:102FBE000042617474657279203D2025756D560D41
:102FCE000A00557074696D65203D20256C756D7312
:102FDE000D0A00494E54203D203078253032780DB0
:102FEE000A0052783A495251283078253032582901
:102FFE000D0A005278282573290D0A0054782825C9
:10300E0073290D0A0054782D2D282575290D0A00D7
:10301E0054782B2B282575290D0A0073756363656B
:10302E007373006661696C6564005B2530356C7581
:10303E005D20496E697469616C697A6520536D61B2
:10304E007274626C6F636B0D0A005B2530356C75A4
:10305E005D20446574656374696E6720506F727489
:10306E00730D0A005B2530356C755D20436F6E6EF7
:10307E00656374656420506F7274733A2000257313
:10308E0020005B2530356C755D20436F6E66696779
:10309E007572696E67204D5055363035303A2025A1
:1030AE00730D0A005B2530356C755D20496E6974B1
:1030BE002050434139363335206F6E2025730D0A6B
:1030CE00005B2530356C755D20496E697420504E5D
:1030DE00353332206F6E2025730D0A004E4F525439
:1030EE0048004541535400534F55544800574553DB
:1030FE005400544F5000424F54544F4D002C033245
:10310E000337033D034203460300000000B804CE1C
:10311E0004E9040B05160500000000980B000000E2
:10312E00000B0D00000000010E00000000BD0E009F
:10313E000000005A0F00000000951135115E116F4E
:06314E0011831194110031
:00000001FF
